{
  "_format": "hh-sol-artifact-1",
  "contractName": "SubscriptionNFT",
  "sourceName": "contracts/SubscriptionNFT.sol",
  "abi": [
    {
      "inputs": [],
      "stateMutability": "nonpayable",
      "type": "constructor"
    },
    {
      "anonymous": false,
      "inputs": [
        {
          "indexed": true,
          "internalType": "address",
          "name": "owner",
          "type": "address"
        },
        {
          "indexed": true,
          "internalType": "address",
          "name": "approved",
          "type": "address"
        },
        {
          "indexed": true,
          "internalType": "uint256",
          "name": "tokenId",
          "type": "uint256"
        }
      ],
      "name": "Approval",
      "type": "event"
    },
    {
      "anonymous": false,
      "inputs": [
        {
          "indexed": true,
          "internalType": "address",
          "name": "owner",
          "type": "address"
        },
        {
          "indexed": true,
          "internalType": "address",
          "name": "operator",
          "type": "address"
        },
        {
          "indexed": false,
          "internalType": "bool",
          "name": "approved",
          "type": "bool"
        }
      ],
      "name": "ApprovalForAll",
      "type": "event"
    },
    {
      "anonymous": false,
      "inputs": [
        {
          "indexed": true,
          "internalType": "address",
          "name": "previousOwner",
          "type": "address"
        },
        {
          "indexed": true,
          "internalType": "address",
          "name": "newOwner",
          "type": "address"
        }
      ],
      "name": "OwnershipTransferred",
      "type": "event"
    },
    {
      "anonymous": false,
      "inputs": [
        {
          "indexed": true,
          "internalType": "address",
          "name": "from",
          "type": "address"
        },
        {
          "indexed": true,
          "internalType": "address",
          "name": "to",
          "type": "address"
        },
        {
          "indexed": true,
          "internalType": "uint256",
          "name": "tokenId",
          "type": "uint256"
        }
      ],
      "name": "Transfer",
      "type": "event"
    },
    {
      "anonymous": false,
      "inputs": [
        {
          "indexed": true,
          "internalType": "uint256",
          "name": "tokenId",
          "type": "uint256"
        },
        {
          "indexed": true,
          "internalType": "address",
          "name": "user",
          "type": "address"
        },
        {
          "indexed": false,
          "internalType": "uint64",
          "name": "expires",
          "type": "uint64"
        }
      ],
      "name": "UpdateUser",
      "type": "event"
    },
    {
      "inputs": [
        {
          "internalType": "address",
          "name": "to",
          "type": "address"
        },
        {
          "internalType": "uint256",
          "name": "tokenId",
          "type": "uint256"
        }
      ],
      "name": "approve",
      "outputs": [],
      "stateMutability": "nonpayable",
      "type": "function"
    },
    {
      "inputs": [
        {
          "internalType": "address",
          "name": "owner",
          "type": "address"
        }
      ],
      "name": "balanceOf",
      "outputs": [
        {
          "internalType": "uint256",
          "name": "",
          "type": "uint256"
        }
      ],
      "stateMutability": "view",
      "type": "function"
    },
    {
      "inputs": [
        {
          "internalType": "uint256",
          "name": "",
          "type": "uint256"
        }
      ],
      "name": "expiresAt",
      "outputs": [
        {
          "internalType": "uint256",
          "name": "",
          "type": "uint256"
        }
      ],
      "stateMutability": "view",
      "type": "function"
    },
    {
      "inputs": [
        {
          "internalType": "uint256",
          "name": "tokenId",
          "type": "uint256"
        }
      ],
      "name": "getApproved",
      "outputs": [
        {
          "internalType": "address",
          "name": "",
          "type": "address"
        }
      ],
      "stateMutability": "view",
      "type": "function"
    },
    {
      "inputs": [
        {
          "internalType": "address",
          "name": "owner",
          "type": "address"
        },
        {
          "internalType": "address",
          "name": "operator",
          "type": "address"
        }
      ],
      "name": "isApprovedForAll",
      "outputs": [
        {
          "internalType": "bool",
          "name": "",
          "type": "bool"
        }
      ],
      "stateMutability": "view",
      "type": "function"
    },
    {
      "inputs": [
        {
          "internalType": "uint256",
          "name": "tokenId",
          "type": "uint256"
        }
      ],
      "name": "isValid",
      "outputs": [
        {
          "internalType": "bool",
          "name": "",
          "type": "bool"
        }
      ],
      "stateMutability": "view",
      "type": "function"
    },
    {
      "inputs": [
        {
          "internalType": "uint256",
          "name": "durationSeconds",
          "type": "uint256"
        }
      ],
      "name": "mintSubscription",
      "outputs": [],
      "stateMutability": "payable",
      "type": "function"
    },
    {
      "inputs": [],
      "name": "name",
      "outputs": [
        {
          "internalType": "string",
          "name": "",
          "type": "string"
        }
      ],
      "stateMutability": "view",
      "type": "function"
    },
    {
      "inputs": [],
      "name": "nextTokenId",
      "outputs": [
        {
          "internalType": "uint256",
          "name": "",
          "type": "uint256"
        }
      ],
      "stateMutability": "view",
      "type": "function"
    },
    {
      "inputs": [],
      "name": "owner",
      "outputs": [
        {
          "internalType": "address",
          "name": "",
          "type": "address"
        }
      ],
      "stateMutability": "view",
      "type": "function"
    },
    {
      "inputs": [
        {
          "internalType": "uint256",
          "name": "tokenId",
          "type": "uint256"
        }
      ],
      "name": "ownerOf",
      "outputs": [
        {
          "internalType": "address",
          "name": "",
          "type": "address"
        }
      ],
      "stateMutability": "view",
      "type": "function"
    },
    {
      "inputs": [],
      "name": "renounceOwnership",
      "outputs": [],
      "stateMutability": "nonpayable",
      "type": "function"
    },
    {
      "inputs": [
        {
          "internalType": "address",
          "name": "from",
          "type": "address"
        },
        {
          "internalType": "address",
          "name": "to",
          "type": "address"
        },
        {
          "internalType": "uint256",
          "name": "tokenId",
          "type": "uint256"
        }
      ],
      "name": "safeTransferFrom",
      "outputs": [],
      "stateMutability": "nonpayable",
      "type": "function"
    },
    {
      "inputs": [
        {
          "internalType": "address",
          "name": "from",
          "type": "address"
        },
        {
          "internalType": "address",
          "name": "to",
          "type": "address"
        },
        {
          "internalType": "uint256",
          "name": "tokenId",
          "type": "uint256"
        },
        {
          "internalType": "bytes",
          "name": "data",
          "type": "bytes"
        }
      ],
      "name": "safeTransferFrom",
      "outputs": [],
      "stateMutability": "nonpayable",
      "type": "function"
    },
    {
      "inputs": [
        {
          "internalType": "address",
          "name": "operator",
          "type": "address"
        },
        {
          "internalType": "bool",
          "name": "approved",
          "type": "bool"
        }
      ],
      "name": "setApprovalForAll",
      "outputs": [],
      "stateMutability": "nonpayable",
      "type": "function"
    },
    {
      "inputs": [
        {
          "internalType": "uint256",
          "name": "tokenId",
          "type": "uint256"
        },
        {
          "internalType": "address",
          "name": "user",
          "type": "address"
        },
        {
          "internalType": "uint64",
          "name": "expires",
          "type": "uint64"
        }
      ],
      "name": "setUser",
      "outputs": [],
      "stateMutability": "nonpayable",
      "type": "function"
    },
    {
      "inputs": [
        {
          "internalType": "bytes4",
          "name": "interfaceId",
          "type": "bytes4"
        }
      ],
      "name": "supportsInterface",
      "outputs": [
        {
          "internalType": "bool",
          "name": "",
          "type": "bool"
        }
      ],
      "stateMutability": "view",
      "type": "function"
    },
    {
      "inputs": [],
      "name": "symbol",
      "outputs": [
        {
          "internalType": "string",
          "name": "",
          "type": "string"
        }
      ],
      "stateMutability": "view",
      "type": "function"
    },
    {
      "inputs": [
        {
          "internalType": "uint256",
          "name": "index",
          "type": "uint256"
        }
      ],
      "name": "tokenByIndex",
      "outputs": [
        {
          "internalType": "uint256",
          "name": "",
          "type": "uint256"
        }
      ],
      "stateMutability": "view",
      "type": "function"
    },
    {
      "inputs": [
        {
          "internalType": "address",
          "name": "owner",
          "type": "address"
        },
        {
          "internalType": "uint256",
          "name": "index",
          "type": "uint256"
        }
      ],
      "name": "tokenOfOwnerByIndex",
      "outputs": [
        {
          "internalType": "uint256",
          "name": "",
          "type": "uint256"
        }
      ],
      "stateMutability": "view",
      "type": "function"
    },
    {
      "inputs": [
        {
          "internalType": "uint256",
          "name": "tokenId",
          "type": "uint256"
        }
      ],
      "name": "tokenURI",
      "outputs": [
        {
          "internalType": "string",
          "name": "",
          "type": "string"
        }
      ],
      "stateMutability": "view",
      "type": "function"
    },
    {
      "inputs": [],
      "name": "totalSupply",
      "outputs": [
        {
          "internalType": "uint256",
          "name": "",
          "type": "uint256"
        }
      ],
      "stateMutability": "view",
      "type": "function"
    },
    {
      "inputs": [
        {
          "internalType": "address",
          "name": "from",
          "type": "address"
        },
        {
          "internalType": "address",
          "name": "to",
          "type": "address"
        },
        {
          "internalType": "uint256",
          "name": "tokenId",
          "type": "uint256"
        }
      ],
      "name": "transferFrom",
      "outputs": [],
      "stateMutability": "nonpayable",
      "type": "function"
    },
    {
      "inputs": [
        {
          "internalType": "address",
          "name": "newOwner",
          "type": "address"
        }
      ],
      "name": "transferOwnership",
      "outputs": [],
      "stateMutability": "nonpayable",
      "type": "function"
    },
    {
      "inputs": [
        {
          "internalType": "uint256",
          "name": "tokenId",
          "type": "uint256"
        }
      ],
      "name": "userExpires",
      "outputs": [
        {
          "internalType": "uint256",
          "name": "",
          "type": "uint256"
        }
      ],
      "stateMutability": "view",
      "type": "function"
    },
    {
      "inputs": [
        {
          "internalType": "uint256",
          "name": "tokenId",
          "type": "uint256"
        }
      ],
      "name": "userOf",
      "outputs": [
        {
          "internalType": "address",
          "name": "",
          "type": "address"
        }
      ],
      "stateMutability": "view",
      "type": "function"
    }
  ],
  "bytecode": "0x608060405234801561001057600080fd5b506040518060400160405280600781526020017f44656d6f537562000000000000000000000000000000000000000000000000008152506040518060400160405280600481526020017f4453554200000000000000000000000000000000000000000000000000000000815250816000908161008c91906103de565b50806001908161009c91906103de565b5050506100bb6100b06100c060201b60201c565b6100c860201b60201c565b6104b0565b600033905090565b6000600b60009054906101000a900473ffffffffffffffffffffffffffffffffffffffff16905081600b60006101000a81548173ffffffffffffffffffffffffffffffffffffffff021916908373ffffffffffffffffffffffffffffffffffffffff1602179055508173ffffffffffffffffffffffffffffffffffffffff168173ffffffffffffffffffffffffffffffffffffffff167f8be0079c531659141344cd1fd0a4f28419497f9722a3daafe3b4186f6b6457e060405160405180910390a35050565b600081519050919050565b7f4e487b7100000000000000000000000000000000000000000000000000000000600052604160045260246000fd5b7f4e487b7100000000000000000000000000000000000000000000000000000000600052602260045260246000fd5b6000600282049050600182168061020f57607f821691505b602082108103610222576102216101c8565b5b50919050565b60008190508160005260206000209050919050565b60006020601f8301049050919050565b600082821b905092915050565b60006008830261028a7fffffffffffffffffffffffffffffffffffffffffffffffffffffffffffffffff8261024d565b610294868361024d565b95508019841693508086168417925050509392505050565b6000819050919050565b6000819050919050565b60006102db6102d66102d1846102ac565b6102b6565b6102ac565b9050919050565b6000819050919050565b6102f5836102c0565b610309610301826102e2565b84845461025a565b825550505050565b600090565b61031e610311565b6103298184846102ec565b505050565b5b8181101561034d57610342600082610316565b60018101905061032f565b5050565b601f8211156103925761036381610228565b61036c8461023d565b8101602085101561037b578190505b61038f6103878561023d565b83018261032e565b50505b505050565b600082821c905092915050565b60006103b560001984600802610397565b1980831691505092915050565b60006103ce83836103a4565b9150826002028217905092915050565b6103e78261018e565b67ffffffffffffffff811115610400576103ff610199565b5b61040a82546101f7565b610415828285610351565b600060209050601f8311600181146104485760008415610436578287015190505b61044085826103c2565b8655506104a8565b601f19841661045686610228565b60005b8281101561047e57848901518255600182019150602085019450602081019050610459565b8683101561049b5784890151610497601f8916826103a4565b8355505b6001600288020188555050505b505050505050565b613ced806104bf6000396000f3fe6080604052600436106101815760003560e01c806375794a3c116100d1578063b88d4fde1161008a578063e030565e11610064578063e030565e146105bf578063e985e9c5146105e8578063f2fde38b14610625578063f577a5001461064e57610181565b8063b88d4fde1461051c578063c2f1f14a14610545578063c87b56dd1461058257610181565b806375794a3c146104195780638da5cb5b146104445780638fc88c481461046f57806393ff0b67146104ac57806395d89b41146104c8578063a22cb465146104f357610181565b806323b872dd1161013e5780634f6ccce7116101185780634f6ccce71461034b5780636352211e1461038857806370a08231146103c5578063715018a61461040257610181565b806323b872dd146102bc5780632f745c59146102e557806342842e0e1461032257610181565b806301ffc9a71461018657806306fdde03146101c3578063081812fc146101ee578063095ea7b31461022b57806317c957091461025457806318160ddd14610291575b600080fd5b34801561019257600080fd5b506101ad60048036038101906101a891906128d7565b61068b565b6040516101ba919061291f565b60405180910390f35b3480156101cf57600080fd5b506101d861069d565b6040516101e591906129ca565b60405180910390f35b3480156101fa57600080fd5b5061021560048036038101906102109190612a22565b61072f565b6040516102229190612a90565b60405180910390f35b34801561023757600080fd5b50610252600480360381019061024d9190612ad7565b610775565b005b34801561026057600080fd5b5061027b60048036038101906102769190612a22565b61088c565b6040516102889190612b26565b60405180910390f35b34801561029d57600080fd5b506102a66108a4565b6040516102b39190612b26565b60405180910390f35b3480156102c857600080fd5b506102e360048036038101906102de9190612b41565b6108b1565b005b3480156102f157600080fd5b5061030c60048036038101906103079190612ad7565b610911565b6040516103199190612b26565b60405180910390f35b34801561032e57600080fd5b5061034960048036038101906103449190612b41565b6109b6565b005b34801561035757600080fd5b50610372600480360381019061036d9190612a22565b6109d6565b60405161037f9190612b26565b60405180910390f35b34801561039457600080fd5b506103af60048036038101906103aa9190612a22565b610a47565b6040516103bc9190612a90565b60405180910390f35b3480156103d157600080fd5b506103ec60048036038101906103e79190612b94565b610acd565b6040516103f99190612b26565b60405180910390f35b34801561040e57600080fd5b50610417610b84565b005b34801561042557600080fd5b5061042e610b98565b60405161043b9190612b26565b60405180910390f35b34801561045057600080fd5b50610459610b9e565b6040516104669190612a90565b60405180910390f35b34801561047b57600080fd5b5061049660048036038101906104919190612a22565b610bc8565b6040516104a39190612b26565b60405180910390f35b6104c660048036038101906104c19190612a22565b610c06565b005b3480156104d457600080fd5b506104dd610d0b565b6040516104ea91906129ca565b60405180910390f35b3480156104ff57600080fd5b5061051a60048036038101906105159190612bed565b610d9d565b005b34801561052857600080fd5b50610543600480360381019061053e9190612d62565b610db3565b005b34801561055157600080fd5b5061056c60048036038101906105679190612a22565b610e15565b6040516105799190612a90565b60405180910390f35b34801561058e57600080fd5b506105a960048036038101906105a49190612a22565b610e9a565b6040516105b691906129ca565b60405180910390f35b3480156105cb57600080fd5b506105e660048036038101906105e19190612e25565b610f02565b005b3480156105f457600080fd5b5061060f600480360381019061060a9190612e78565b611242565b60405161061c919061291f565b60405180910390f35b34801561063157600080fd5b5061064c60048036038101906106479190612b94565b6112d6565b005b34801561065a57600080fd5b5061067560048036038101906106709190612a22565b611359565b604051610682919061291f565b60405180910390f35b600061069682611386565b9050919050565b6060600080546106ac90612ee7565b80601f01602080910402602001604051908101604052809291908181526020018280546106d890612ee7565b80156107255780601f106106fa57610100808354040283529160200191610725565b820191906000526020600020905b81548152906001019060200180831161070857829003601f168201915b5050505050905090565b600061073a82611400565b6004600083815260200190815260200160002060009054906101000a900473ffffffffffffffffffffffffffffffffffffffff169050919050565b600061078082610a47565b90508073ffffffffffffffffffffffffffffffffffffffff168373ffffffffffffffffffffffffffffffffffffffff16036107f0576040517f08c379a00000000000000000000000000000000000000000000000000000000081526004016107e790612f8a565b60405180910390fd5b8073ffffffffffffffffffffffffffffffffffffffff1661080f61144b565b73ffffffffffffffffffffffffffffffffffffffff16148061083e575061083d8161083861144b565b611242565b5b61087d576040517f08c379a00000000000000000000000000000000000000000000000000000000081526004016108749061301c565b60405180910390fd5b6108878383611453565b505050565b600d6020528060005260406000206000915090505481565b6000600980549050905090565b6108c26108bc61144b565b8261150c565b610901576040517f08c379a00000000000000000000000000000000000000000000000000000000081526004016108f8906130ae565b60405180910390fd5b61090c8383836115a1565b505050565b600061091c83610acd565b821061095d576040517f08c379a000000000000000000000000000000000000000000000000000000000815260040161095490613140565b60405180910390fd5b600760008473ffffffffffffffffffffffffffffffffffffffff1673ffffffffffffffffffffffffffffffffffffffff168152602001908152602001600020600083815260200190815260200160002054905092915050565b6109d183838360405180602001604052806000815250610db3565b505050565b60006109e06108a4565b8210610a21576040517f08c379a0000000000000000000000000000000000000000000000000000000008152600401610a18906131d2565b60405180910390fd5b60098281548110610a3557610a346131f2565b5b90600052602060002001549050919050565b600080610a538361189a565b9050600073ffffffffffffffffffffffffffffffffffffffff168173ffffffffffffffffffffffffffffffffffffffff1603610ac4576040517f08c379a0000000000000000000000000000000000000000000000000000000008152600401610abb9061326d565b60405180910390fd5b80915050919050565b60008073ffffffffffffffffffffffffffffffffffffffff168273ffffffffffffffffffffffffffffffffffffffff1603610b3d576040517f08c379a0000000000000000000000000000000000000000000000000000000008152600401610b34906132ff565b60405180910390fd5b600360008373ffffffffffffffffffffffffffffffffffffffff1673ffffffffffffffffffffffffffffffffffffffff168152602001908152602001600020549050919050565b610b8c6118d7565b610b966000611955565b565b600c5481565b6000600b60009054906101000a900473ffffffffffffffffffffffffffffffffffffffff16905090565b60006006600083815260200190815260200160002060000160149054906101000a900467ffffffffffffffff1667ffffffffffffffff169050919050565b600062278d0082610c17919061337d565b905060018110158015610c2b575060038111155b610c6a576040517f08c379a0000000000000000000000000000000000000000000000000000000008152600401610c61906133fa565b60405180910390fd5b80662386f26fc10000610c7d919061341a565b3414610cbe576040517f08c379a0000000000000000000000000000000000000000000000000000000008152600401610cb5906134a8565b60405180910390fd5b6000600c6000815480929190610cd3906134c8565b919050559050610ce33382611a1b565b8242610cef9190613510565b600d600083815260200190815260200160002081905550505050565b606060018054610d1a90612ee7565b80601f0160208091040260200160405190810160405280929190818152602001828054610d4690612ee7565b8015610d935780601f10610d6857610100808354040283529160200191610d93565b820191906000526020600020905b815481529060010190602001808311610d7657829003601f168201915b5050505050905090565b610daf610da861144b565b8383611c38565b5050565b610dc4610dbe61144b565b8361150c565b610e03576040517f08c379a0000000000000000000000000000000000000000000000000000000008152600401610dfa906130ae565b60405180910390fd5b610e0f84848484611da4565b50505050565b6000426006600084815260200190815260200160002060000160149054906101000a900467ffffffffffffffff1667ffffffffffffffff1610610e90576006600083815260200190815260200160002060000160009054906101000a900473ffffffffffffffffffffffffffffffffffffffff169050610e95565b600090505b919050565b6060610ea582611400565b6000610eaf611e00565b90506000815111610ecf5760405180602001604052806000815250610efa565b80610ed984611e17565b604051602001610eea929190613580565b6040516020818303038152906040525b915050919050565b600030905060008173ffffffffffffffffffffffffffffffffffffffff16636352211e866040518263ffffffff1660e01b8152600401610f429190612b26565b602060405180830381865afa158015610f5f573d6000803e3d6000fd5b505050506040513d601f19601f82011682018060405250810190610f8391906135b9565b905060003373ffffffffffffffffffffffffffffffffffffffff168373ffffffffffffffffffffffffffffffffffffffff1663081812fc886040518263ffffffff1660e01b8152600401610fd79190612b26565b602060405180830381865afa158015610ff4573d6000803e3d6000fd5b505050506040513d601f19601f8201168201806040525081019061101891906135b9565b73ffffffffffffffffffffffffffffffffffffffff1614806110b257508273ffffffffffffffffffffffffffffffffffffffff1663e985e9c583336040518363ffffffff1660e01b81526004016110709291906135e6565b602060405180830381865afa15801561108d573d6000803e3d6000fd5b505050506040513d601f19601f820116820180604052508101906110b19190613624565b5b90508173ffffffffffffffffffffffffffffffffffffffff163373ffffffffffffffffffffffffffffffffffffffff1614806110eb5750805b61112a576040517f08c379a00000000000000000000000000000000000000000000000000000000081526004016111219061369d565b60405180910390fd5b60405180604001604052808673ffffffffffffffffffffffffffffffffffffffff1681526020018567ffffffffffffffff168152506006600088815260200190815260200160002060008201518160000160006101000a81548173ffffffffffffffffffffffffffffffffffffffff021916908373ffffffffffffffffffffffffffffffffffffffff16021790555060208201518160000160146101000a81548167ffffffffffffffff021916908367ffffffffffffffff1602179055509050508473ffffffffffffffffffffffffffffffffffffffff16867f4e06b4e7000e659094299b3533b47b6aa8ad048e95e872d23d1f4ee55af89cfe8660405161123291906136cc565b60405180910390a3505050505050565b6000600560008473ffffffffffffffffffffffffffffffffffffffff1673ffffffffffffffffffffffffffffffffffffffff16815260200190815260200160002060008373ffffffffffffffffffffffffffffffffffffffff1673ffffffffffffffffffffffffffffffffffffffff16815260200190815260200160002060009054906101000a900460ff16905092915050565b6112de6118d7565b600073ffffffffffffffffffffffffffffffffffffffff168173ffffffffffffffffffffffffffffffffffffffff160361134d576040517f08c379a000000000000000000000000000000000000000000000000000000000815260040161134490613759565b60405180910390fd5b61135681611955565b50565b6000600c548210801561137f5750600d6000838152602001908152602001600020544211155b9050919050565b60007f780e9d63000000000000000000000000000000000000000000000000000000007bffffffffffffffffffffffffffffffffffffffffffffffffffffffff1916827bffffffffffffffffffffffffffffffffffffffffffffffffffffffff191614806113f957506113f882611ee5565b5b9050919050565b61140981611f5f565b611448576040517f08c379a000000000000000000000000000000000000000000000000000000000815260040161143f9061326d565b60405180910390fd5b50565b600033905090565b816004600083815260200190815260200160002060006101000a81548173ffffffffffffffffffffffffffffffffffffffff021916908373ffffffffffffffffffffffffffffffffffffffff160217905550808273ffffffffffffffffffffffffffffffffffffffff166114c683610a47565b73ffffffffffffffffffffffffffffffffffffffff167f8c5be1e5ebec7d5bd14f71427d1e84f3dd0314c0f7b2291e5b200ac8c7c3b92560405160405180910390a45050565b60008061151883610a47565b90508073ffffffffffffffffffffffffffffffffffffffff168473ffffffffffffffffffffffffffffffffffffffff16148061155a57506115598185611242565b5b8061159857508373ffffffffffffffffffffffffffffffffffffffff166115808461072f565b73ffffffffffffffffffffffffffffffffffffffff16145b91505092915050565b8273ffffffffffffffffffffffffffffffffffffffff166115c182610a47565b73ffffffffffffffffffffffffffffffffffffffff1614611617576040517f08c379a000000000000000000000000000000000000000000000000000000000815260040161160e906137eb565b60405180910390fd5b600073ffffffffffffffffffffffffffffffffffffffff168273ffffffffffffffffffffffffffffffffffffffff1603611686576040517f08c379a000000000000000000000000000000000000000000000000000000000815260040161167d9061387d565b60405180910390fd5b6116938383836001611fa0565b8273ffffffffffffffffffffffffffffffffffffffff166116b382610a47565b73ffffffffffffffffffffffffffffffffffffffff1614611709576040517f08c379a0000000000000000000000000000000000000000000000000000000008152600401611700906137eb565b60405180910390fd5b6004600082815260200190815260200160002060006101000a81549073ffffffffffffffffffffffffffffffffffffffff02191690556001600360008573ffffffffffffffffffffffffffffffffffffffff1673ffffffffffffffffffffffffffffffffffffffff168152602001908152602001600020600082825403925050819055506001600360008473ffffffffffffffffffffffffffffffffffffffff1673ffffffffffffffffffffffffffffffffffffffff16815260200190815260200160002060008282540192505081905550816002600083815260200190815260200160002060006101000a81548173ffffffffffffffffffffffffffffffffffffffff021916908373ffffffffffffffffffffffffffffffffffffffff160217905550808273ffffffffffffffffffffffffffffffffffffffff168473ffffffffffffffffffffffffffffffffffffffff167fddf252ad1be2c89b69c2b068fc378daa952ba7f163c4a11628f55a4df523b3ef60405160405180910390a46118958383836001611fb2565b505050565b60006002600083815260200190815260200160002060009054906101000a900473ffffffffffffffffffffffffffffffffffffffff169050919050565b6118df61144b565b73ffffffffffffffffffffffffffffffffffffffff166118fd610b9e565b73ffffffffffffffffffffffffffffffffffffffff1614611953576040517f08c379a000000000000000000000000000000000000000000000000000000000815260040161194a906138e9565b60405180910390fd5b565b6000600b60009054906101000a900473ffffffffffffffffffffffffffffffffffffffff16905081600b60006101000a81548173ffffffffffffffffffffffffffffffffffffffff021916908373ffffffffffffffffffffffffffffffffffffffff1602179055508173ffffffffffffffffffffffffffffffffffffffff168173ffffffffffffffffffffffffffffffffffffffff167f8be0079c531659141344cd1fd0a4f28419497f9722a3daafe3b4186f6b6457e060405160405180910390a35050565b600073ffffffffffffffffffffffffffffffffffffffff168273ffffffffffffffffffffffffffffffffffffffff1603611a8a576040517f08c379a0000000000000000000000000000000000000000000000000000000008152600401611a8190613955565b60405180910390fd5b611a9381611f5f565b15611ad3576040517f08c379a0000000000000000000000000000000000000000000000000000000008152600401611aca906139c1565b60405180910390fd5b611ae1600083836001611fa0565b611aea81611f5f565b15611b2a576040517f08c379a0000000000000000000000000000000000000000000000000000000008152600401611b21906139c1565b60405180910390fd5b6001600360008473ffffffffffffffffffffffffffffffffffffffff1673ffffffffffffffffffffffffffffffffffffffff16815260200190815260200160002060008282540192505081905550816002600083815260200190815260200160002060006101000a81548173ffffffffffffffffffffffffffffffffffffffff021916908373ffffffffffffffffffffffffffffffffffffffff160217905550808273ffffffffffffffffffffffffffffffffffffffff16600073ffffffffffffffffffffffffffffffffffffffff167fddf252ad1be2c89b69c2b068fc378daa952ba7f163c4a11628f55a4df523b3ef60405160405180910390a4611c34600083836001611fb2565b5050565b8173ffffffffffffffffffffffffffffffffffffffff168373ffffffffffffffffffffffffffffffffffffffff1603611ca6576040517f08c379a0000000000000000000000000000000000000000000000000000000008152600401611c9d90613a2d565b60405180910390fd5b80600560008573ffffffffffffffffffffffffffffffffffffffff1673ffffffffffffffffffffffffffffffffffffffff16815260200190815260200160002060008473ffffffffffffffffffffffffffffffffffffffff1673ffffffffffffffffffffffffffffffffffffffff16815260200190815260200160002060006101000a81548160ff0219169083151502179055508173ffffffffffffffffffffffffffffffffffffffff168373ffffffffffffffffffffffffffffffffffffffff167f17307eab39ab6107e8899845ad3d59bd9653f200f220920489ca2b5937696c3183604051611d97919061291f565b60405180910390a3505050565b611daf8484846115a1565b611dbb84848484611fb8565b611dfa576040517f08c379a0000000000000000000000000000000000000000000000000000000008152600401611df190613abf565b60405180910390fd5b50505050565b606060405180602001604052806000815250905090565b606060006001611e268461213f565b01905060008167ffffffffffffffff811115611e4557611e44612c37565b5b6040519080825280601f01601f191660200182016040528015611e775781602001600182028036833780820191505090505b509050600082602001820190505b600115611eda578080600190039150507f3031323334353637383961626364656600000000000000000000000000000000600a86061a8153600a8581611ece57611ecd61331f565b5b04945060008503611e85575b819350505050919050565b60007fad092b5c000000000000000000000000000000000000000000000000000000007bffffffffffffffffffffffffffffffffffffffffffffffffffffffff1916827bffffffffffffffffffffffffffffffffffffffffffffffffffffffff19161480611f585750611f5782612292565b5b9050919050565b60008073ffffffffffffffffffffffffffffffffffffffff16611f818361189a565b73ffffffffffffffffffffffffffffffffffffffff1614159050919050565b611fac84848484612374565b50505050565b50505050565b6000611fd98473ffffffffffffffffffffffffffffffffffffffff166124d2565b15612132578373ffffffffffffffffffffffffffffffffffffffff1663150b7a0261200261144b565b8786866040518563ffffffff1660e01b81526004016120249493929190613b34565b6020604051808303816000875af192505050801561206057506040513d601f19601f8201168201806040525081019061205d9190613b95565b60015b6120e2573d8060008114612090576040519150601f19603f3d011682016040523d82523d6000602084013e612095565b606091505b5060008151036120da576040517f08c379a00000000000000000000000000000000000000000000000000000000081526004016120d190613abf565b60405180910390fd5b805181602001fd5b63150b7a0260e01b7bffffffffffffffffffffffffffffffffffffffffffffffffffffffff1916817bffffffffffffffffffffffffffffffffffffffffffffffffffffffff191614915050612137565b600190505b949350505050565b600080600090507a184f03e93ff9f4daa797ed6e38ed64bf6a1f010000000000000000831061219d577a184f03e93ff9f4daa797ed6e38ed64bf6a1f01000000000000000083816121935761219261331f565b5b0492506040810190505b6d04ee2d6d415b85acef810000000083106121da576d04ee2d6d415b85acef810000000083816121d0576121cf61331f565b5b0492506020810190505b662386f26fc10000831061220957662386f26fc1000083816121ff576121fe61331f565b5b0492506010810190505b6305f5e1008310612232576305f5e10083816122285761222761331f565b5b0492506008810190505b612710831061225757612710838161224d5761224c61331f565b5b0492506004810190505b6064831061227a57606483816122705761226f61331f565b5b0492506002810190505b600a8310612289576001810190505b80915050919050565b60007f80ac58cd000000000000000000000000000000000000000000000000000000007bffffffffffffffffffffffffffffffffffffffffffffffffffffffff1916827bffffffffffffffffffffffffffffffffffffffffffffffffffffffff1916148061235d57507f5b5e139f000000000000000000000000000000000000000000000000000000007bffffffffffffffffffffffffffffffffffffffffffffffffffffffff1916827bffffffffffffffffffffffffffffffffffffffffffffffffffffffff1916145b8061236d575061236c826124f5565b5b9050919050565b6123808484848461255f565b60018111156123c4576040517f08c379a00000000000000000000000000000000000000000000000000000000081526004016123bb90613c34565b60405180910390fd5b6000829050600073ffffffffffffffffffffffffffffffffffffffff168573ffffffffffffffffffffffffffffffffffffffff160361240b5761240681612565565b61244a565b8373ffffffffffffffffffffffffffffffffffffffff168573ffffffffffffffffffffffffffffffffffffffff16146124495761244885826125ae565b5b5b600073ffffffffffffffffffffffffffffffffffffffff168473ffffffffffffffffffffffffffffffffffffffff160361248c576124878161271b565b6124cb565b8473ffffffffffffffffffffffffffffffffffffffff168473ffffffffffffffffffffffffffffffffffffffff16146124ca576124c984826127ec565b5b5b5050505050565b6000808273ffffffffffffffffffffffffffffffffffffffff163b119050919050565b60007f01ffc9a7000000000000000000000000000000000000000000000000000000007bffffffffffffffffffffffffffffffffffffffffffffffffffffffff1916827bffffffffffffffffffffffffffffffffffffffffffffffffffffffff1916149050919050565b50505050565b600980549050600a600083815260200190815260200160002081905550600981908060018154018082558091505060019003906000526020600020016000909190919091505550565b600060016125bb84610acd565b6125c59190613c54565b90506000600860008481526020019081526020016000205490508181146126aa576000600760008673ffffffffffffffffffffffffffffffffffffffff1673ffffffffffffffffffffffffffffffffffffffff168152602001908152602001600020600084815260200190815260200160002054905080600760008773ffffffffffffffffffffffffffffffffffffffff1673ffffffffffffffffffffffffffffffffffffffff168152602001908152602001600020600084815260200190815260200160002081905550816008600083815260200190815260200160002081905550505b6008600084815260200190815260200160002060009055600760008573ffffffffffffffffffffffffffffffffffffffff1673ffffffffffffffffffffffffffffffffffffffff16815260200190815260200160002060008381526020019081526020016000206000905550505050565b6000600160098054905061272f9190613c54565b90506000600a600084815260200190815260200160002054905060006009838154811061275f5761275e6131f2565b5b906000526020600020015490508060098381548110612781576127806131f2565b5b906000526020600020018190555081600a600083815260200190815260200160002081905550600a60008581526020019081526020016000206000905560098054806127d0576127cf613c88565b5b6001900381819060005260206000200160009055905550505050565b60006127f783610acd565b905081600760008573ffffffffffffffffffffffffffffffffffffffff1673ffffffffffffffffffffffffffffffffffffffff168152602001908152602001600020600083815260200190815260200160002081905550806008600084815260200190815260200160002081905550505050565b6000604051905090565b600080fd5b600080fd5b60007fffffffff0000000000000000000000000000000000000000000000000000000082169050919050565b6128b48161287f565b81146128bf57600080fd5b50565b6000813590506128d1816128ab565b92915050565b6000602082840312156128ed576128ec612875565b5b60006128fb848285016128c2565b91505092915050565b60008115159050919050565b61291981612904565b82525050565b60006020820190506129346000830184612910565b92915050565b600081519050919050565b600082825260208201905092915050565b60005b83811015612974578082015181840152602081019050612959565b60008484015250505050565b6000601f19601f8301169050919050565b600061299c8261293a565b6129a68185612945565b93506129b6818560208601612956565b6129bf81612980565b840191505092915050565b600060208201905081810360008301526129e48184612991565b905092915050565b6000819050919050565b6129ff816129ec565b8114612a0a57600080fd5b50565b600081359050612a1c816129f6565b92915050565b600060208284031215612a3857612a37612875565b5b6000612a4684828501612a0d565b91505092915050565b600073ffffffffffffffffffffffffffffffffffffffff82169050919050565b6000612a7a82612a4f565b9050919050565b612a8a81612a6f565b82525050565b6000602082019050612aa56000830184612a81565b92915050565b612ab481612a6f565b8114612abf57600080fd5b50565b600081359050612ad181612aab565b92915050565b60008060408385031215612aee57612aed612875565b5b6000612afc85828601612ac2565b9250506020612b0d85828601612a0d565b9150509250929050565b612b20816129ec565b82525050565b6000602082019050612b3b6000830184612b17565b92915050565b600080600060608486031215612b5a57612b59612875565b5b6000612b6886828701612ac2565b9350506020612b7986828701612ac2565b9250506040612b8a86828701612a0d565b9150509250925092565b600060208284031215612baa57612ba9612875565b5b6000612bb884828501612ac2565b91505092915050565b612bca81612904565b8114612bd557600080fd5b50565b600081359050612be781612bc1565b92915050565b60008060408385031215612c0457612c03612875565b5b6000612c1285828601612ac2565b9250506020612c2385828601612bd8565b9150509250929050565b600080fd5b600080fd5b7f4e487b7100000000000000000000000000000000000000000000000000000000600052604160045260246000fd5b612c6f82612980565b810181811067ffffffffffffffff82111715612c8e57612c8d612c37565b5b80604052505050565b6000612ca161286b565b9050612cad8282612c66565b919050565b600067ffffffffffffffff821115612ccd57612ccc612c37565b5b612cd682612980565b9050602081019050919050565b82818337600083830152505050565b6000612d05612d0084612cb2565b612c97565b905082815260208101848484011115612d2157612d20612c32565b5b612d2c848285612ce3565b509392505050565b600082601f830112612d4957612d48612c2d565b5b8135612d59848260208601612cf2565b91505092915050565b60008060008060808587031215612d7c57612d7b612875565b5b6000612d8a87828801612ac2565b9450506020612d9b87828801612ac2565b9350506040612dac87828801612a0d565b925050606085013567ffffffffffffffff811115612dcd57612dcc61287a565b5b612dd987828801612d34565b91505092959194509250565b600067ffffffffffffffff82169050919050565b612e0281612de5565b8114612e0d57600080fd5b50565b600081359050612e1f81612df9565b92915050565b600080600060608486031215612e3e57612e3d612875565b5b6000612e4c86828701612a0d565b9350506020612e5d86828701612ac2565b9250506040612e6e86828701612e10565b9150509250925092565b60008060408385031215612e8f57612e8e612875565b5b6000612e9d85828601612ac2565b9250506020612eae85828601612ac2565b9150509250929050565b7f4e487b7100000000000000000000000000000000000000000000000000000000600052602260045260246000fd5b60006002820490506001821680612eff57607f821691505b602082108103612f1257612f11612eb8565b5b50919050565b7f4552433732313a20617070726f76616c20746f2063757272656e74206f776e6560008201527f7200000000000000000000000000000000000000000000000000000000000000602082015250565b6000612f74602183612945565b9150612f7f82612f18565b604082019050919050565b60006020820190508181036000830152612fa381612f67565b9050919050565b7f4552433732313a20617070726f76652063616c6c6572206973206e6f7420746f60008201527f6b656e206f776e6572206f7220617070726f76656420666f7220616c6c000000602082015250565b6000613006603d83612945565b915061301182612faa565b604082019050919050565b6000602082019050818103600083015261303581612ff9565b9050919050565b7f4552433732313a2063616c6c6572206973206e6f7420746f6b656e206f776e6560008201527f72206f7220617070726f76656400000000000000000000000000000000000000602082015250565b6000613098602d83612945565b91506130a38261303c565b604082019050919050565b600060208201905081810360008301526130c78161308b565b9050919050565b7f455243373231456e756d657261626c653a206f776e657220696e646578206f7560008201527f74206f6620626f756e6473000000000000000000000000000000000000000000602082015250565b600061312a602b83612945565b9150613135826130ce565b604082019050919050565b600060208201905081810360008301526131598161311d565b9050919050565b7f455243373231456e756d657261626c653a20676c6f62616c20696e646578206f60008201527f7574206f6620626f756e64730000000000000000000000000000000000000000602082015250565b60006131bc602c83612945565b91506131c782613160565b604082019050919050565b600060208201905081810360008301526131eb816131af565b9050919050565b7f4e487b7100000000000000000000000000000000000000000000000000000000600052603260045260246000fd5b7f4552433732313a20696e76616c696420746f6b656e2049440000000000000000600082015250565b6000613257601883612945565b915061326282613221565b602082019050919050565b600060208201905081810360008301526132868161324a565b9050919050565b7f4552433732313a2061646472657373207a65726f206973206e6f74206120766160008201527f6c6964206f776e65720000000000000000000000000000000000000000000000602082015250565b60006132e9602983612945565b91506132f48261328d565b604082019050919050565b60006020820190508181036000830152613318816132dc565b9050919050565b7f4e487b7100000000000000000000000000000000000000000000000000000000600052601260045260246000fd5b7f4e487b7100000000000000000000000000000000000000000000000000000000600052601160045260246000fd5b6000613388826129ec565b9150613393836129ec565b9250826133a3576133a261331f565b5b828204905092915050565b7f4f6e6c7920312d33206d6f6e7468730000000000000000000000000000000000600082015250565b60006133e4600f83612945565b91506133ef826133ae565b602082019050919050565b60006020820190508181036000830152613413816133d7565b9050919050565b6000613425826129ec565b9150613430836129ec565b925082820261343e816129ec565b915082820484148315176134555761345461334e565b5b5092915050565b7f57726f6e672045544820616d6f756e7400000000000000000000000000000000600082015250565b6000613492601083612945565b915061349d8261345c565b602082019050919050565b600060208201905081810360008301526134c181613485565b9050919050565b60006134d3826129ec565b91507fffffffffffffffffffffffffffffffffffffffffffffffffffffffffffffffff82036135055761350461334e565b5b600182019050919050565b600061351b826129ec565b9150613526836129ec565b925082820190508082111561353e5761353d61334e565b5b92915050565b600081905092915050565b600061355a8261293a565b6135648185613544565b9350613574818560208601612956565b80840191505092915050565b600061358c828561354f565b9150613598828461354f565b91508190509392505050565b6000815190506135b381612aab565b92915050565b6000602082840312156135cf576135ce612875565b5b60006135dd848285016135a4565b91505092915050565b60006040820190506135fb6000830185612a81565b6136086020830184612a81565b9392505050565b60008151905061361e81612bc1565b92915050565b60006020828403121561363a57613639612875565b5b60006136488482850161360f565b91505092915050565b7f455243343930373a206e6f74206f776e65722f617070726f7665640000000000600082015250565b6000613687601b83612945565b915061369282613651565b602082019050919050565b600060208201905081810360008301526136b68161367a565b9050919050565b6136c681612de5565b82525050565b60006020820190506136e160008301846136bd565b92915050565b7f4f776e61626c653a206e6577206f776e657220697320746865207a65726f206160008201527f6464726573730000000000000000000000000000000000000000000000000000602082015250565b6000613743602683612945565b915061374e826136e7565b604082019050919050565b6000602082019050818103600083015261377281613736565b9050919050565b7f4552433732313a207472616e736665722066726f6d20696e636f72726563742060008201527f6f776e6572000000000000000000000000000000000000000000000000000000602082015250565b60006137d5602583612945565b91506137e082613779565b604082019050919050565b60006020820190508181036000830152613804816137c8565b9050919050565b7f4552433732313a207472616e7366657220746f20746865207a65726f2061646460008201527f7265737300000000000000000000000000000000000000000000000000000000602082015250565b6000613867602483612945565b91506138728261380b565b604082019050919050565b600060208201905081810360008301526138968161385a565b9050919050565b7f4f776e61626c653a2063616c6c6572206973206e6f7420746865206f776e6572600082015250565b60006138d3602083612945565b91506138de8261389d565b602082019050919050565b60006020820190508181036000830152613902816138c6565b9050919050565b7f4552433732313a206d696e7420746f20746865207a65726f2061646472657373600082015250565b600061393f602083612945565b915061394a82613909565b602082019050919050565b6000602082019050818103600083015261396e81613932565b9050919050565b7f4552433732313a20746f6b656e20616c7265616479206d696e74656400000000600082015250565b60006139ab601c83612945565b91506139b682613975565b602082019050919050565b600060208201905081810360008301526139da8161399e565b9050919050565b7f4552433732313a20617070726f766520746f2063616c6c657200000000000000600082015250565b6000613a17601983612945565b9150613a22826139e1565b602082019050919050565b60006020820190508181036000830152613a4681613a0a565b9050919050565b7f4552433732313a207472616e7366657220746f206e6f6e20455243373231526560008201527f63656976657220696d706c656d656e7465720000000000000000000000000000602082015250565b6000613aa9603283612945565b9150613ab482613a4d565b604082019050919050565b60006020820190508181036000830152613ad881613a9c565b9050919050565b600081519050919050565b600082825260208201905092915050565b6000613b0682613adf565b613b108185613aea565b9350613b20818560208601612956565b613b2981612980565b840191505092915050565b6000608082019050613b496000830187612a81565b613b566020830186612a81565b613b636040830185612b17565b8181036060830152613b758184613afb565b905095945050505050565b600081519050613b8f816128ab565b92915050565b600060208284031215613bab57613baa612875565b5b6000613bb984828501613b80565b91505092915050565b7f455243373231456e756d657261626c653a20636f6e736563757469766520747260008201527f616e7366657273206e6f7420737570706f727465640000000000000000000000602082015250565b6000613c1e603583612945565b9150613c2982613bc2565b604082019050919050565b60006020820190508181036000830152613c4d81613c11565b9050919050565b6000613c5f826129ec565b9150613c6a836129ec565b9250828203905081811115613c8257613c8161334e565b5b92915050565b7f4e487b7100000000000000000000000000000000000000000000000000000000600052603160045260246000fdfea26469706673582212204553c25fb41243af45b66c248887679d9fe75c9e3d9615cb2e78ddf65fa46cb164736f6c634300081c0033",
  "linkReferences": {},
  "deployedLinkReferences": {}
}